:08000000803102288731FD2F39
:100E50002F0096019701980199019A019B010800C2
:100E6000503031008D008F019101023093009201CA
:100E700008008731282787318731C3278731873199
:100E80003027873108008731392787319B3000327E
:100E9000890B472F20000C1C4E2F4F2F522F8731CC
:100EA0005D27873120008C1C562F572F462F873106
:100EB00090278731462F803102280130F100003021
:100EC000F200DD3000320032890B622F0032000068
:100ED00020008C1C6C2F6D2F6E2F8F2F71089700A8
:100EE00099018C1C742F752F762F8F2F0B30F000EB
:100EF0000F30890B792FF00B792F00000130F107AB
:100F00000030F23D7208803AF00080307002031D1C
:100F10008B2F10307102031C8E2F8F2F612F080032
:100F20000130F1000030F200DD3000320032890B78
:100F3000952F0032000020000C1C9F2FA02FA12F06
:100F4000C22F7108990097010C1CA72FA82FA92F59
:100F5000C22F0B30F0000F30890BAC2FF00BAC2FF1
:100F600000000130F1070030F23D7208803AF000D5
:100F700080307002031DBE2F10307102031CC12F80
:100F8000C22F942F080020009A0199019601970121
:100F9000980107309500FF309100F0309200FF304B
:100FA0009300F0309400F0303E00D900FF30CE00C6
:100FB000F030C3000730E400FC30B800DA01E5018E
:100FC000C401B901CF01E601BA01C501D001DB01BD
:100FD000FF30BB00FF30C600FF30D100FF30DC0027
:100FE0000730E700FF30BC00FF30C700FF30D20001
:100FF000FF30DD000730E800080020008731432F74
:020000040001F9
:0A000E00DC3FFF3F9F3FFF3FFF3F35
:00000001FF
