:04000000803117280C
:100008007E1480318B1E09280A2815280B1D0D28FF
:100018000E2815288031702080310130F607003015
:10002800F73D7E10090080311928F601F7017E108E
:10003800200080311F2802302100990098012200F9
:1000480096010F3021009000FF308C008D012300B5
:100058008D018C018B160B118B1721001508C039E7
:10006800153895000E30F5007508F200283020008C
:1000780095008030F3000030F40080318E2080310C
:100088005828613022008D005828F23022008D0057
:100098005828B63022008D005828E43022008D0000
:1000A8005828F63022008D007708003A03195D2899
:1000B80058287608003A03194528013A03194928AF
:1000C800033A03194D28013A03195128073A03192D
:1000D80055285828803117280B11720820009500E0
:1000E80070087104031979287A287F2871088A0012
:1000F80070080A00803108000130F6070030F73D2B
:10010800053076067704031D8A288B288D28F6018A
:0E011800F70108007408F1007308F0000800F9
:020000040001F9
:04000E00E43FFF3E8E
:00000001FF
