:08000000803102288731FD2F39
:100F1C002F0096019701980199019A019B010800F5
:100F2C00503031008D008F019101023093009201FD
:100F3C00080087318E2787318731C3278731873166
:100F4C0096278731080087319F2787312000991415
:100F5C000B30F0000F30890BB12FF00BB12F0000CC
:100F6C00200099100B30F0000F30890BBB2FF00BC9
:100F7C00BB2F0000AC2F8031022820009A01990170
:100F8C0096019701980107309500FF309100FF30D2
:100F9C009200FF309300FD309400FD303E00D900EC
:100FAC00FF30CE00FF30C3000730E400FF30B80044
:100FBC00DA01E501C401B901CF01E601BA01C501AD
:100FCC00D001DB01FF30BB00FF30C600FF30D10089
:100FDC00FF30DC000730E700FF30BC00FF30C700FB
:100FEC00FF30D200FF30DD000730E80008002000A1
:040FFC008731A92F61
:020000040001F9
:0A000E00DC3FFF3F9F3FFF3FFF3F35
:00000001FF
