:040000008031202803
:100008007E1480312E00961E0A280B2813288C1E79
:100018000E280F2813288131EA2180311E28161E48
:10002800162817281E280C1E1A281B281E2881315E
:100038005F2180317E100900803122285F308400E2
:1000480082308500703086000030870008308231A9
:1000580077228031AB308400823085002C308600D6
:10006800003087000430823177228031FB01FC01A7
:100078007E1020008031AC2820009A019901960159
:100088009701980107309500FF3091009201FF30E9
:100098009300FF309400FF303E00D900F330CE00CB
:1000A800C3010730E400F830B800DA01E501C40103
:1000B800B901CF01E601BA01C501D001DB01FF306A
:1000C800BB00FF30C600FF30D100FF30DC00073036
:1000D800E700FF30BC00FF30C700FF30D200FF3020
:1000E800DD000730E8003F10BF103F113E14BE147A
:1000F8003E153D10BD103D115511D5115415D4159F
:100108005311D311AF30F9000230FA0082319B222B
:100118008031A630F9000230FA0082319522803110
:10012800A130F9000230FA0082318F228031AF30DD
:10013800F9000130FA008231892280318830F900D3
:100148000130FA008231832280312E001616080011
:100158008231522280318B170B17C9287C08FA008C
:100168007B08F900813133218031C9287C08FA00E5
:100178007B08F900813107218031C9287C08FA0001
:100188007B08F9008031DB2080317708003A0319B9
:10019800CE28C9287608003A0319B228013A03196B
:1001A800BA28033A0319C228C92880312028F02820
:1001B800EE302000970006293E30200097000629DF
:1001C8009C302000970006297A30200097000629E5
:1001D8009E302000970006297A08003A0319F5286E
:1001E80006297908003A0319DC28013A0319E0289E
:1001F800033A0319E428013A0319E828073A0319CE
:10020800EC28062908001C29FD3020009700322917
:10021800DA30200097003229663020009700322912
:10022800BE30200097003229FF3020009700322985
:100238007A08003A0319212932297908003A031962
:100248000829013A03190C29033A03191029013A1C
:1002580003191429073A03191829322908004829CB
:100268006130200097005E29F230200097005E2957
:10027800B630200097005E29E430200097005E2900
:10028800F630200097005E297A08003A03194D29B4
:100298005E297908003A03193429013A03193829E3
:1002A800033A03193C29013A03194029073A03196B
:1002B80044295E2908003E003F1C632964296729F8
:1002C8008231352281313E00BF1C6B296C296F2990
:1002D8008231262281313E003F1D732974297729F6
:1002E8008231172281313E00551D7B297C297F29C7
:1002F8008231082281313E00D51D8329842987292E
:100308008131F921813108000A30F0070030F13DD0
:100318007108803AF80080307802031D95290A3068
:100328007002031C98299929AA297108803AF800B3
:1003380080307802031DA229F13070020318A52924
:10034800A629AA29700820009D00AE29F030F000E7
:100358000030F1000800F630F007FF30F13D710879
:10036800803AF80080307802031DBC290A307002F8
:10037800031CBF29C029D1297108803AF8008030B0
:100388007802031DC929F13070020318CC29CD2940
:10039800D129700820009D00D5290A30F0000030CE
:1003A800F1000800883020009F0078309D009C01F3
:1003B8002E008C1296164430F9000230FA00823171
:1003C8007D228131803020009E0008002E008C1292
:1003D80020002A082B040319F229F329F8292B08ED
:1003E8008A002A080A008131080020002008210418
:1003F8000319FF29002A052A21088A0020080A0073
:1004080082313E00D5110800200022082304031978
:100418000E2A0F2A142A23088A0022080A00823189
:100428003E005511080020002408250403191D2A40
:100438001E2A232A25088A0024080A0082313E0041
:100448003F11080020002608270403192C2A2D2A0A
:10045800322A27088A0026080A0082313E00BF1087
:10046800080020002808290403193B2A3C2A412AAD
:1004780029088A0028080A0082313E003F10080037
:100488000130FB070030FC3D05307B067C04031D72
:100498004E2A4F2A512AFB01FC01080082316722AB
:1004A800823180314020823182316F228231813124
:1004B800D621823108000A34003401340034013472
:1004C8000034013400342F009601970198019901F6
:1004D8009A019B010800503031008D008F01910175
:1004E800930192010800FE0012001E00FE0B782AFC
:1004F80000347A082000AB007908AA0008007A08BE
:100508002000A1007908A00008007A082000A300B4
:100518007908A20008007A082000A5007908A4003C
:1005280008007A082000A7007908A60008007A08C1
:100538002000A9007908A80008000230F600003061
:10054800F70008000130F6000030F7000800013419
:0C055800003401340034F601F701080003
:020000040001F9
:0A000E00DC3FFF3F9F3FFF3FFF3F35
:00000001FF
