:08000000803102288731FD2F39
:100BC000503031008D008F01910193019201080096
:100BD0002F0096019701980199019A019B01080045
:100BE0008531E825853186311F2685318531E0251F
:100BF000853108008531F0258531DD300032003245
:100C0000890BFE2D0032000020000C1C082E092E3E
:100C10000C2E86315826853120008C1C102E112E6A
:100C2000142E8631D326853120000C1D182E192E46
:100C3000FD2D87315E278531FD2D80310228200072
:100C40009A01990196019701980107309500FF30AC
:100C500091009201FF309300FF309400F0303E008D
:100C6000D900FF30CE00F030C3000730E400F83088
:100C7000B800DA01E501C401B901CF01E601BA010A
:100C8000C501D001DB01FF30BB00FF30C600FF30E3
:100C9000D100FF30DC000730E700FF30BC00FF3040
:100CA000C700FF30D200FF30DD000730E800080049
:100CB0000130F1000030F20020008C18602E612E0F
:100CC000D22E0C1D642E652E662ED22E613097001A
:100CD0000B30F0000F30890B6B2EF00B6B2E0000E9
:100CE00020008C18742E752ED22E0C1D782E792E85
:100CF0007A2ED22EF23097000B30F0000F30890B95
:100D00007F2EF00B7F2E000020008C18882E892E5D
:100D1000D22E0C1D8C2E8D2E8E2ED22EB6309700FC
:100D20000B30F0000F30890B932EF00B932E000048
:100D3000E430200097000B30F0000F30890B9E2E1E
:100D4000F00B9E2E000020008C18A72EA82ED22E6D
:100D50000C1DAB2EAC2EAD2ED22EF63097000B30E4
:100D6000F0000F30890BB22EF00BB22E00002000E5
:100D70008C18BB2EBC2ED22E0C1DBF2EC02EC12E09
:100D8000D22E0130F1070030F23D7208803AF000B7
:100D900080307002031DCE2E10307102031CD12E44
:100DA000D22E5C2E08000130F1000030F200DD3060
:100DB00000320032890BD82E0032000020000C18BF
:100DC000E22EE32E5D2F0C1DE62EE72EE82E5D2F82
:100DD000FD3097000B30F0000F30890BED2EF00B3B
:100DE000ED2E000020000C18F62EF72E5D2F0C1DA6
:100DF000FA2EFB2EFC2E5D2FDA3097000B30F00020
:100E00000F30890B012FF00B012F000020000C1870
:100E10000A2F0B2F5D2F0C1D0E2F0F2F102F5D2F64
:100E2000663097000B30F0000F30890B152FF00B58
:100E3000152F000020000C181E2F1F2F5D2F0C1DDA
:100E4000222F232F242F5D2FBE3097000B30F00070
:100E50000F30890B292FF00B292F000020000C18D0
:100E6000322F332F5D2F0C1D362F372F382F5D2F4C
:100E7000FF3097000B30F0000F30890B3D2FF00B47
:100E80003D2F000020000C18462F472F5D2F0C1D12
:100E90004A2F4B2F4C2F5D2F0130F1070030F23DD0
:100EA0007208803AF00080307002031D592F103014
:100EB0007102031C5C2F5D2FD72E08000130F1005A
:100EC0000030F200DD3000320032890B632F003237
:100ED000000020000C186D2F6E2FFC2F8C1C712F22
:100EE000722F732FFC2FEE3097000B30F0000F3075
:100EF000890B782FF00B782F000020000C18812F21
:100F0000822FFC2F8C1C852F862F872FFC2F3E30A5
:100F100097000B30F0000F30890B8C2FF00B8C2FCB
:100F2000000020000C18952F962FFC2F8C1C992F59
:100F30009A2F9B2FFC2F9C3097000B30F0000F3026
:100F4000890BA02FF00BA02F000020000C18A92F58
:100F5000AA2FFC2F8C1CAD2FAE2FAF2FFC2F7A3079
:100F600097000B30F0000F30890BB42FF00BB42F2B
:100F7000000020000C18BD2FBE2FFC2F8C1CC12F91
:100F8000C22FC32FFC2F9E3097000B30F0000F3084
:100F9000890BC82FF00BC82F000020000C18D12F90
:100FA000D22FFC2F8C1CD52FD62FD72FFC2F8E3075
:100FB00097000B30F0000F30890BDC2FF00BDC2F8B
:100FC000000020000C18E52FE62FFC2F8C1CE92FC9
:100FD000EA2FEB2FFC2F0130F1070030F23D7208B1
:100FE000803AF00080307002031DF82F103071023B
:100FF000031CFB2FFC2F622F080020008531FA2DE7
:020000040001F9
:0A000E00DC3FFF3F9F3FFF3FFF3F35
:00000001FF
