:08000000803102288731FD2F39
:100E3200503031008D008F01910193019201080021
:100E42002F0096019701980199019A019B010800D0
:100E520087312127873187314D27873187311927FC
:100E6200873108008731292787319B300032890B6F
:100E7200372F20000C1C3E2F3F2F422F8731872710
:100E8200873120008C1C462F472F362F8731C227EF
:100E92008731362F8031022820009A01990196016C
:100EA2009701980107309500FF309100F0309200D1
:100EB200FF309300F0309400F0303E00D900FF3054
:100EC200CE00F030C3000730E400FC30B800DA0195
:100ED200E501C401B901CF01E601BA01C501D001A2
:100EE200DB01FF30BB00FF30C600FF30D100FF3016
:100EF200DC000730E700FF30BC00FF30C700FF30E6
:100F0200D200FF30DD000730E80008000130F100B8
:100F12000030F200DD3000320032890B8C2F0032BB
:100F2200000020008C1C962F972F982FC12F71083C
:100F320097009901DD3000320032890B9C2F00327C
:100F4200000020008C1CA62FA72FA82FC12F0B302A
:100F5200F0000F30890BAB2FF00BAB2F00000130EC
:100F6200F1070030F23D7208803AF00080307002E2
:100F7200031DBD2F10307102031CC02FC12F8B2FF8
:100F820008000130F1000030F200DD3000320032A2
:100F9200890BC72F0032000020000C1CD12FD22F4A
:100FA200D32FFC2F710899009701DD3000320032F7
:100FB200890BD72F0032000020000C1CE12FE22FFA
:100FC200E32FFC2F0B30F0000F30890BE62FF00BD4
:100FD200E62F00000130F1070030F23D7208803A3E
:100FE200F00080307002031DF82F10307102031CD4
:0E0FF200FB2FFC2FC62F080020008731332F65
:020000040001F9
:0A000E00DC3FFF3F9F3FFF3FFF3F35
:00000001FF
