:08000000803102288731FB2F3B
:100E240016302100970008005830210099009801DD
:100E3400220096010800803021009E009B019C0145
:100E440001309D00080087314A27873187311627F2
:100E5400873187311227873187311D278731080071
:100E6400F3007308F200F20DF20D21001D08720662
:100E7400833972069D001D14000021009D149D18E5
:100E8400442F452F412F1C08F1001B08F0000800D7
:100E9400220090018F018C018D018E010F30210001
:100EA4009000FF308C008D01FF308E00FF308F00EA
:100EB400F03023008F008D01073090003F308C000C
:100EC400240090018D012100951722009D01080046
:100ED40087312527873100308731322787317108E0
:100EE400F6007008F5007608803AF4008030740249
:100EF400031D7E2F64307502031C812F822F852FE2
:100F0400013022008D007608803AF40080307402AB
:100F1400031D8E2FC8307502031C912F922F952F1D
:100F2400033022008D007608803AF4008130740288
:100F3400031D9E2F2C307502031CA12FA22FA52F59
:100F4400073022008D007608803AF4008130740264
:100F5400031DAE2F90307502031CB12FB22FB52F95
:100F64000F3022008D007608803AF400813074023C
:100F7400031DBE2FF4307502031CC12FC22FC52FD1
:100F84001F3022008D007608803AF400823074020B
:100F9400031DCE2F58307502031CD12FD22FD52F0D
:100FA4003F3022008D007608803AF40083307402CA
:100FB400031DDE2F20307502031CE12FE22FE52FE5
:100FC4007F3022008D007608803AF400833074026A
:100FD400031DEE2FE8307502031CF12FF22FF62FBC
:100FE400FF3022008D006D2F22008D016D2F803186
:0C0FF4000228F701F801200087316A2F65
:020000040001F9
:04000E00E43FFF3E8E
:00000001FF
