:0400000080311F2804
:100008007E1480318B1E09280A2812280B1D0D2802
:100018000E2812288031A42080311D288B1D152818
:1000280016281D280B1C19281A281D288031FF2086
:1000380080317E10090080312128E530840080302D
:100048008500703086000030870006308031EB2054
:100058008031F73084008030850020308600003001
:10006800870004308031EB208031F601F701F80178
:10007800F9017E1020008031B42856286130220012
:100088008D006C28F23022008D006C28B6302200DA
:100098008D006C28E43022008D006C28F630220098
:1000A8008D006C287B08003A03195B286C287A08B5
:1000B800003A03194228013A03194628033A03195A
:1000C8004A28013A03194E28073A031952286C287E
:1000D8000800220090018F018C018D018E010F30E4
:1000E80021009000FF308C008D01FF308E00FF3022
:1000F8008F00F03023008F008D01073090003830DA
:100108008C00240090018D012100951722009D018B
:100118008B15080021001508C03915389500F430F2
:10012800200095000E30FC007C08FD000B118B169A
:10013800C330FA000030FB008031F1208031080024
:100148000B117D0820009500240825040319AD280B
:10015800AE28B32825088A0024080A008031080040
:100168008031D12080318B170B177908FB00780874
:10017800FA00803141208031B92880311F280130B0
:10018800F8070030F93D053078067904031DCD28BD
:10019800CE28D028F801F901080080316D2080317F
:1001A8008031DE2080318031FB20803180318E200B
:1001B8008031080002302100990098012200960140
:1001C8000800013400340134003401340034FE00E6
:1001D80012001E00FE0BEC2800347B082000A5004E
:1001E8007A08A400080001340034013400341630C1
:0801F800210097000800080037
:020000040001F9
:04000E00E43FFF3E8E
:00000001FF
