:08000000803102288731FD2F39
:100E4C0016302100970008005830210099009801B5
:100E5C0022009601080087315927873187312A27CC
:100E6C008731873126278731080087313127873131
:100E7C002130F4007630890B412FF40B412F0032D6
:100E8C0020000C1C4A2F4B2F4E2F87317B2787318C
:100E9C0020008C1C522F532F3E2F8731BC278731BB
:100EAC003E2F80310228220090018F018C018D0190
:100EBC008E010F3021009000FF308C00F0308D003F
:100ECC00FF308E00F0308F00F03023008F00303078
:100EDC008D00073090003C308C00240090018D0177
:100EEC002100951722009D0108000130F20000300E
:100EFC00F3004130F000EE30890B822FF00B822F83
:100F0C00003220008C1C8B2F8C2F8D2FBB2F720846
:100F1C0022008D008F014130F000EE30890B942FB0
:100F2C00F00B942F003220008C1C9D2F9E2F9F2F96
:100F3C00BB2F0230F1004530F000AA30890BA42FF2
:100F4C00F00BA42FF10BA42F0130F2070030F33D6E
:100F5C007308803AF00080307002031DB72F1030F8
:100F6C007202031CBA2FBB2F7F2F08000130F20036
:100F7C000030F3004130F000EE30890BC32FF00B42
:100F8C00C32F003220000C1CCC2FCD2FCE2FFC2FCA
:100F9C00720822008F008D014130F000EE30890B79
:100FAC00D52FF00BD52F003220000C1CDE2FDF2F9D
:100FBC00E02FFC2F0230F1004530F000AA30890BF5
:100FCC00E52FF00BE52FF10BE52F0130F207003088
:100FDC00F33D7308803AF00080307002031DF82F47
:100FEC0010307202031CFB2FFC2FC02F08002000B6
:040FFC0087313B2FCF
:020000040001F9
:04000E00E43FFF3E8E
:00000001FF
