:08000000803102288731FD2F39
:100EF2002F0096019701980199019A019B01080020
:100F0200503031008D008F01910102309300920127
:100F120008008731792787318731C32787318731A5
:100F220081278731080087318A278731F001F10153
:100F320020000C1C9D2F9E2F992F0130F0070030AE
:100F4200F13D70037104031DA72FA82FAD2F991433
:100F52009B300032890BAA2F023070067104031DE8
:100F6200B32FB42FBC2F20009910F001F1019B3058
:100F72000032890BB92F9B300032890BBD2F992F7C
:100F82008031022820009A01990196019701980167
:100F920007309500FF309100FF309200FF30930040
:100FA200FD309400FD303E00D900FF30CE00FF300E
:100FB200C3000730E400FE30B800DA01E501C401E5
:100FC200B901CF01E601BA01C501D001DB01FF3051
:100FD200BB00FF30C600FF30D100FF30DC0007301D
:100FE200E700FF30BC00FF30C700FF30D200FF3007
:0E0FF200DD000730E800080020008731942F52
:020000040001F9
:0A000E00DC3FFF3F9F3FFF3FFF3F35
:00000001FF
