:0400000080312528FE
:100008007E1480310B1F09280A2823282E00991CEA
:100018000E280F281A288F1C122813281A282000A7
:1000280063088A0062080A0080312328191C1D28E9
:100038001E2823280F1C21282228232813287E1055
:1000480009008031272844308400003085002230A0
:100058008531AF2580317E10200080318B28853195
:10006800BB258031003A03193A283B286B284828D9
:100078008531F32580318A288531EE2580318A281B
:100088008531E42580318A2820005308FA007A084F
:10009800F9000630443E86008701413F8A00403F10
:1000A8000A008031FB00FC017C08003A03195D2836
:1000B80044287B08013A03194428033A03193C28C9
:1000C800013A03194028073A031944284428200014
:1000D80061105C08FB005B08FA00DB0A0319DC0A04
:1000E8007A0886007B08870001088531FD25803164
:1000F80001302000DD020030DE3B5D085E04031D98
:1001080086288728892806308A2803300800853100
:10011800532580318B170B1706302000C30013308E
:10012800C200AD30890B9628C20B9628C30B9628BF
:1001380000328131AA2180310B302000C3002630E3
:10014800C2005D30890BA628C20BA628C30BA628BF
:1001580000328531C12580312000BD01BD0A6D30D6
:10016800BE008530BF0001308331AC2380310B30B5
:100178002000C3002630C2005D30890BC128C20BA5
:10018800C128C30BC12800328531C1258031200028
:10019800BD01BD0A2930BE008330BF000230833163
:1001A800AC238031A0288031252886312326803150
:1001B800FA0020005B0886005C0887007A08810046
:1001C8000130DB070030DC3D0130DD020030DE3B72
:1001D8005D085E040319F128F228F72886310626FF
:1001E800803105301F29E11501298531D525803158
:1001F8001F298531DA2580311F295008FA007A082D
:10020800F90045088A0044080A008131FB00FC0116
:100218007C08003A03191129FD287B08013A0319C3
:10022800FD28033A0319F928013A0319F928073A6E
:100238000319FD28FD2808002000A600A701A70A29
:1002480061192729282963292608A5002508DA0025
:10025800E110611561100E30A5002508DF00F430AB
:10026800D8000130D900E1153130C4000630C5008E
:10027800D0013130C6000630C700D1013130C80086
:100288000630C900D2013130CA000630CB00D30194
:100298002F30CC000630CD00D4010230A300063048
:1002A800A4008531B525813186311A268131853101
:1002B8004625813186310E2681312000A701270885
:1002C800080020009A0199019601970198010730CA
:1002D8009500FF309100FF309200FF309300FF300F
:1002E8009400FF303E00D900E730CE00FF30C30055
:1002F8000730E400FF30B800DA01E501C401B901B4
:10030800CF01E601BA01C501D001DB01FF30BB0016
:10031800FF30C600FF30D100FF30DC000730E700B7
:10032800FF30BC00FF30C700FF30D200FF30DD00D7
:100338000730E80013303D00C50014303E00A3002C
:100348001530A40014303D00C60008000030853187
:10035800082581312000E50165080F392038B800EB
:100368003808E5008331CE2381310D302000B800F4
:10037800FB30890BBD29B80BBD29003228308231EA
:10038800202281311A30890BC72900320C30823182
:10039800202281311A30890BCF2900320630823170
:1003A8002022813106302000B8003030890BDA294C
:1003B800B80BDA2900008531C12581318531A125A5
:1003C800813108002000BB00012A38087F3EB900AF
:1003D8003908BC00172A3808BF3EB9003908BC00E4
:1003E800172A3808933EB9003908BC00172A38087C
:1003F800D33EB9003908BC00172A3B08B900BA0136
:100408003A08003A0319092A172A3908013A031940
:10041800E929033A0319EF29013A0319F529073A9B
:100428000319FB29172A3C088231202281314230E6
:10043800890B1C2A003208002000B7008531CB2523
:10044800823120006510F0303705B50065080F3996
:100458003504B6003608E5008331CE2382310D30ED
:100468002000B500FB30890B372AB50B372A00323C
:1004780020003708B5000430B535890B402A6508D7
:100488000F393504B6003608E5008331CE238231B2
:100498000D302000B500FB30890B502AB50B502ACF
:1004A800003208002000E115662A8531E9258231ED
:1004B800842A8631202682310330842A8531E42536
:1004C8008231842A5008FA007A08F90045088A001F
:1004D80044080A008231FB00FC017C08003A031939
:1004E800762A622A7B08013A0319622A033A031919
:1004F800592A013A0319592A073A03195D2A622A27
:1005080008002000B7008531CB2582312000651412
:10051800F0303705B50065080F393504B6003608E0
:10052800E5008331CE2382318530890B992A00007A
:1005380020003708B5000430B535890BA02A6508B6
:100548000F393504B6003608E5008331CE238231F1
:100558008530890BAD2A000008002000B00020007B
:100568003008813120218231003A0319BC2ABD2A82
:10057800B32A20002D08A4002C08A3002F08A600E9
:100588002E08A50085311A25823100302000A800E8
:10059800A900AA018531382582318531C6258231E5
:1005A800843106248231013A0319DB2ADC2AD42A51
:1005B8000800200061100230FA007A08E000EC2AF6
:1005C8008531E9258231082B8531E4258231082BD4
:1005D8005208FA007A08F9000430443E8600870180
:1005E800413F8A00403F0A008231FB00FC017C0841
:1005F800003A0319002BE82A7B08023A0319E42A77
:10060800013A0319E42AE82A0800F8340534883442
:1006180005349934053433340034D9340034A834DB
:10062800053456340234F3340534EE340534E934F1
:100638000534E4340534DF340534DA340534D5348C
:100648000534D0340534DD3402345334553453344E
:1006580043345234493442344534543445340034F4
:1006680086311D2683312000611C3B2B3C2B492BF6
:100678008531BB258331003A0319432B442B492B81
:100688000F302000A0002008DF0020005F08A00035
:10069800A101A035A10D0930200784008330213D38
:1006A8008500013F8A00003F0A0083312000A20034
:1006B8002208DF0008002000A700230824040319EB
:1006C800662B672B782B2735443E86008701230845
:1006D800C03F2408C13F2508A6002708503E8600D1
:1006E800870126088100852B2735443E860087012F
:1006F8003130C03F0630C13F2708503E8600870191
:1007080081010800F4007008710403198C2B8D2BEB
:100718009E2B7435443E860087017008C03F7108DF
:10072800C13F7208F3007408503E860087017308C1
:100738008100AB2B7435443E860087013130C03FC1
:100748000630C13F7408503E8600870181010800C9
:100758002000C1003D08C0004008B80041088131B0
:10076800E621833120003E0884003F088500000808
:1007780082318522833101302000BE070030BF3D21
:100788003E0884003F0885001200031DCC2BCD2BAA
:10079800B62B080020006508B1003108B2006515C5
:1007A8006508B1003108B30065116508B10031086A
:1007B800B4003230AC000030AD000330AE00003081
:1007C800AF0027308231B122833108002000A40015
:1007D800A501A50AE118F12BF22B032CE114A501C0
:1007E80024080319F82BF92BFC2BDF01DF0A002C56
:1007F8000230A3002308DF00863111268331200050
:10080800250808002000A401A40AE1180C2C0D2CCE
:10081800202C6111FF30A3002308DA0086311A2644
:10082800843186311426843186311726843120009C
:100838006008A3002308A400240808007908023EE1
:10084800860087010108F0000030F1007908860071
:100858008701403FF200413FF3008531292584316B
:100868000030F500F600F70185316025843102304B
:1008780008007908023E860087010108F000003070
:10088800F100790886008701403FF200413FF300FC
:100898008531292584310030F500F600F7018531CE
:1008A80060258431023008007908F000FF39031D03
:1008B8000030F1000230F2000030F30085312925C4
:1008C80084310030F500F600F70185316025843168
:1008D800023008007908F000FF39031D0030F100EC
:1008E8000130F2000030F3008531292584310030D1
:1008F800F500F600F70185316025843102300800E3
:100908007908F000FF39031D0030F1000130F200D2
:100918000030F3008531292584310030F500F600D8
:10092800F701853160258431043008007908F0002A
:10093800FF39031D0030F1000230F2000030F300EF
:100948008531292584310030F500F600F70185311D
:1009580060258431043008007908F000FF39031D50
:100968000030F1000130F2000030F3008531292514
:1009780084310030F500F600F701853160258431B7
:10098800043008007908F000FF39031D0030F10039
:100998000230F2000030F30085312925843100301F
:1009A800F500F600F7018531602584310230080032
:1009B8007908F000FF39031D0030F1000130F20022
:1009C8000030F3008531292584310030F500F60028
:1009D800F701853160258431023008007908F0007C
:1009E800FF39031D0030F1000230F2000030F3003F
:1009F8008531292584310030F500F600F70185316D
:100A080060258431043008002000B3003308B100A9
:100A1800B2013108AC003208AD000130AE00003040
:100A2800AF0027308231B122853108002000E11D56
:100A38001E2D1F2D282D2408DC002308DB00260886
:100A4800DE002508DD00E11108002000E11D2D2D44
:100A58002E2D372D7108DC007008DB007308DE00CE
:100A68007208DD00E111080020002908A400280808
:100A7800A3002A08AB002B08A500023083315F23AE
:100A8800853108002300901A4A2D4B2D522D8F01D5
:100A980008309000910113308D00901608008531C0
:100AA8009125853185317F258531813165218531D4
:100AB80085317625853108007608F1007508F00043
:100AC8007708F8007808F2000030833186238531F2
:100AD80008004D34453443342D34443445345634B9
:100AE80053340034623031008D008F01910106309B
:100AF80093009201080023008F01083090009101B3
:100B080013308D00901208002000611403145A0D50
:100B18008531FD258531053008002F0096019701A4
:100B2800980199019A019B010800200061145A3527
:100B38008531FD258531033008002000E51565085D
:100B48008531082585310800200061108631262668
:100B5800853104300800640080010131890BB02D13
:100B6800003420002408E3002308E20008002300E2
:100B7800110E890C890C01390800013082312022BC
:100B88008531080000308331EA238531080042307E
:100B9800890BCC2D003208002000E110E0010E3056
:100BA800080086310A2685310930080086310A2670
:100BB80085310A300800863106268531053008005F
:100BC8008631292685310030080086312C2685316A
:100BD8000130080086312C26853102300800863124
:100BE8002C268531013008002000E110E0010E308C
:100BF8000800F000700823008C00080083313423BB
:100C0800863108002300911211160800230091165E
:100C1800111608002E0019140800230011140800EA
:100C28002E00191008002300901208002E000F1043
:100C380008002E000F1008002E000F1408002300D3
:100C48000C0808002300911508002300111508005E
:0E0C5800230091140800053008000130080048
:020000040001F9
:0A000E00EC3FFF3F9F3FFF3FFF3F25
:00000001FF
