:08000000803102288731FD2F39
:100DDA00503031008D008F0191019301920108007A
:100DEA002F0096019701980199019A019B01080029
:100DFA008631F52686318731342786318631ED26CC
:100E0A00863187311C2786310800F20072082100DA
:100E1A009E00931713131314000021001318162FA2
:100E2A00172F122F0D08F1000C08F00008002200FD
:100E3A008E018F0190019101920193018D01210090
:100E4A009E019B019C0194019501960197019A01CB
:100E5A0099019801D4309300C8309D000800200001
:100E6A009A01990196019701980107309500FF3080
:100E7A0091009201FF309300FF309400FF303E0052
:100E8A00D900FF30CE00C3010730E400FF30B800BC
:100E9A00DA01E501C401B901CF01E601BA01C501D0
:100EAA00D001DB01FF30BB00FF30C600FF30D100AC
:100EBA00FF30DC000730E700FF30BC00FF30C7001E
:100ECA00FF30D200FF30DD000730E800080086312D
:100EDA00FD268731003087310A2787317108F500EE
:100EEA007008F4007508803AF30080307302031D1D
:100EFA00802F64307402031C832F842F872F0130C4
:100F0A00200097007508803AF30080307302031DB1
:100F1A00902FC8307402031C932F942F972F0330FD
:100F2A00200097007508803AF30081307302031D90
:100F3A00A02F2C307402031CA32FA42FA72F073035
:100F4A00200097007508803AF30081307302031D70
:100F5A00B02F90307402031CB32FB42FB72F0F3069
:100F6A00200097007508803AF30081307302031D50
:100F7A00C02FF4307402031CC32FC42FC72F1F3095
:100F8A00200097007508803AF30082307302031D2F
:100F9A00D02F58307402031CD32FD42FD72F3F30B1
:100FAA00200097007508803AF30083307302031D0E
:100FBA00E02F20307402031CE32FE42FE72F7F3049
:100FCA00200097007508803AF30083307302031DEE
:100FDA00F02FE8307402031CF32FF42FF82F7F3020
:100FEA00200097006F2F200097016F2F8031022871
:060FFA00200087316C2F7E
:020000040001F9
:0A000E00DC3FFF3F9F3FFF3FFF3F35
:00000001FF
