:040000008031202803
:100008007E1480312E00961E0A280B2813288C1E79
:100018000E280F2813288131C92180311E28161E69
:10002800162817281E280C1E1A281B281E2881315E
:10003800522180317E10090080312228313084001D
:1000480082308500703086000030870008308231A9
:10005800392280316D308400823085002C30860052
:10006800003087000430823139228031FB01FC01E5
:100078007E10200080314028503031008D008F01E3
:10008800910193019201073020009500FF30910003
:100098009201FF309300FF309400FF303E00D900FA
:1000A800F330CE00C3010730E400F830B8003F1049
:1000B800BF103F113E14BE143E153D10BD103D113A
:1000C8005511D5115415D4155311D3112E001616E8
:1000D800883020009F0078309D009C012E008C12F3
:1000E80096168B1716162330F9000230FA00823163
:1000F8003F2280316830F9000230FA0082315D22F7
:1001080080316330F9000230FA00823157228031A1
:100118007130F9000230FA00823151228031A23068
:10012800F9000130FA0082314B2280317B30F9002E
:100138000130FA00823145228031803020009E0053
:10014800BC287C08FA007B08F9008131262180311F
:10015800BC287C08FA007B08F9008031FA2080313D
:10016800BC287C08FA007B08F9008031CE20803159
:100178007708003A0319C128BC287608003A031901
:10018800A528013A0319AD28033A0319B528BC2854
:1001980080312028E328EE3020009700F9283E30EF
:1001A80020009700F9289C3020009700F9287A3021
:1001B80020009700F9289E3020009700F9287A0837
:1001C800003A0319E828F9287908003A0319CF28D2
:1001D800013A0319D328033A0319D728013A031916
:1001E800DB28073A0319DF28F92808000F29FD3012
:1001F800200097002529DA3020009700252966304D
:10020800200097002529BE30200097002529FF30BF
:100218002000970025297A08003A0319142925296E
:100228007908003A0319FB28013A0319FF28033A11
:1002380003190329013A03190729073A03190B2956
:10024800252908003B296130200097005129F23008
:10025800200097005129B630200097005129E4303A
:10026800200097005129F6302000970051297A087C
:10027800003A0319402951297908003A0319272916
:10028800013A03192B29033A03192F29013A0319B3
:100298003329073A03193729512908003E003F1C22
:1002A800562957295A298231142281313E00BF1C10
:1002B8005E295F2962298231052281313E003F1D76
:1002C800662967296A298131F62181313E00551D49
:1002D8006E296F2972298131E72181313E00D51DB0
:1002E800762977297A298131D821813108000A3085
:1002F800F0070030F13D7108803AF800803078024C
:10030800031D88290A307002031C8B298C299D291A
:100318007108803AF80080307802031D9529F13081
:1003280070020318982999299D29700820009D00BA
:10033800A129F030F0000030F1000800F630F00795
:10034800FF30F13D7108803AF80080307802031DD3
:10035800AF290A307002031CB229B329C4297108D5
:10036800803AF80080307802031DBC29F130700211
:100378000318BF29C029C429700820009D00C82976
:100388000A30F0000030F10008002E008C12200026
:100398002A082B040319D129D229D7292B088A0026
:1003A8002A080A00813108002000200821040319C6
:1003B800DE29DF29E42921088A0020080A00813182
:1003C8003E00D51108002000220823040319ED2956
:1003D800EE29F32923088A0022080A0081313E0009
:1003E800551108002000240825040319FC29FD29BB
:1003F800022A25088A0024080A0082313E003F119B
:10040800080020002608270403190B2A0C2A112AA1
:1004180027088A0026080A0082313E00BF1008001B
:1004280020002808290403191A2A1B2A202A290827
:100438008A0028080A0082313E003F100800013077
:10044800FB070030FC3D05307B067C04031D2D2A8C
:100458002E2A302AFB01FC0108000A34003401343A
:1004680000340134003401340034FE0012001E0050
:10047800FE0B3A2A00347A082000AB007908AA005B
:1004880008007A082000A1007908A00008007A086E
:100498002000A3007908A20008007A082000A5001F
:1004A8007908A40008007A082000A7007908A600A7
:1004B80008007A082000A9007908A800080001307F
:1004C800F6000030F70008000230F6000030F700B0
:1004D80008000134003401340034F601F701080043
:020000040001F9
:0A000E00DC3FFF3F9F3FFF3FFF3F35
:00000001FF
