:0400000080312528FE
:100008007E1480310B1F09280A2823282E00991CEA
:100018000E280F281A288F1C122813281A282000A7
:1000280063088A0062080A0080312328191C1D28E9
:100038001E2823280F1C21282228232813287E1055
:1000480009008031272844308400003085002230A0
:100058008531B62580317E10200080318B2885318E
:10006800C2258031003A03193A283B286B284828D2
:100078008531FA2580318A288531F52580318A280D
:100088008531EB2580318A2820005308FA007A0848
:10009800F9000630443E86008701413F8A00403F10
:1000A8000A008031FB00FC017C08003A03195D2836
:1000B80044287B08013A03194428033A03193C28C9
:1000C800013A03194028073A031944284428200014
:1000D80061105C08FB005B08FA00DB0A0319DC0A04
:1000E8007A0886007B08870001088631042680315B
:1000F80001302000DD020030DE3B5D085E04031D98
:1001080086288728892806308A2803300800853100
:100118005A2580318B170B1715302000C3004B3040
:10012800C200BE30890B9628C20B9628C30B9628AE
:1001380000008131AA21803129302000C300963087
:10014800C2007F30890BA628C20BA628C30BA6289D
:100158008531C82580312000BD01BD0A7430BE003C
:100168008530BF0001308331B3238031293020002E
:10017800C3009630C2007F30890BC028C20BC0284C
:10018800C30BC0288531C825803103302000C20048
:100198004208BD00D730BE008230BF000230833134
:1001A800B3238031A0288031252886312A26803142
:1001B800FA0020005B0886005C0887007A08810046
:1001C8000130DB070030DC3D0130DD020030DE3B72
:1001D8005D085E040319F128F228F72886310D26F8
:1001E800803105301F29E11501298531DC25803151
:1001F8001F298531E12580311F295008FA007A0826
:10020800F90045088A0044080A008131FB00FC0116
:100218007C08003A03191129FD287B08013A0319C3
:10022800FD28033A0319F928013A0319F928073A6E
:100238000319FD28FD2808002000A600A701A70A29
:1002480061192729282963292608A5002508DA0025
:10025800E110611561100E30A5002508DF00F430AB
:10026800D8000130D900E1153830C4000630C50087
:10027800D0013830C6000630C700D1013830C80078
:100288000630C900D2013830CA000630CB00D3018D
:100298003630CC000630CD00D4010930A30006303A
:1002A800A4008531BC2581318631212681318531F3
:1002B8004D2581318631152681312000A701270877
:1002C800080020009A0199019601970198010730CA
:1002D8009500FF309100FF309200FF309300FF300F
:1002E8009400FF303E00D900E730CE00FF30C30055
:1002F8000730E400FF30B800DA01E501C401B901B4
:10030800CF01E601BA01C501D001DB01FF30BB0016
:10031800FF30C600FF30D100FF30DC000730E700B7
:10032800FF30BC00FF30C700FF30D200FF30DD00D7
:100338000730E80013303D00C50014303E00A3002C
:100348001530A40014303D00C60008000030853187
:100358000F2581312000E50165080F392038B800E4
:100368003808E5008331D523813134302000B800C6
:10037800F130890BBD29B80BBD29003228308231F4
:10038800202281316A30890BC72900320C30823132
:10039800202281316A30890BCF2900320630823120
:1003A8002022813115302000B800C630890BDA29A7
:1003B800B80BDA2900008531C82581318531A82597
:1003C800813108002000BB00012A38087F3EB900AF
:1003D8003908BC00172A3808BF3EB9003908BC00E4
:1003E800172A3808933EB9003908BC00172A38087C
:1003F800D33EB9003908BC00172A3B08B900BA0136
:100408003A08003A0319092A172A3908013A031940
:10041800E929033A0319EF29013A0319F529073A9B
:100428000319FB29172A3C08823120228131A03088
:100438000032890B1C2A08002000B7008531D2251C
:10044800823120006510F0303705B50065080F3996
:100458003504B6003608E5008331D52382313430BF
:100468002000B500F130890B372AB50B372A003246
:1004780020003708B5000430B535890B402A6508D7
:100488000F393504B6003608E5008331D5238231AB
:1004980034302000B500F130890B502AB50B502AB2
:1004A800003208002000B7008531D22582312000B3
:1004B8006514F0303705B50065080F393504B60006
:1004C8003608E5008331D5238231E430003200322A
:1004D800890B6A2A0032003220003708B500043040
:1004E800B535890B742A65080F393504B600360806
:1004F800E5008331D5238231E43000320032890BA4
:10050800812A0032003208002000E115982A85313E
:10051800F0258231B62A8631272682310330B62A61
:100528008531EB258231B62A5008FA007A08F9009D
:1005380045088A0044080A008231FB00FC017C0857
:10054800003A0319A82A942A7B08013A0319942A25
:10055800033A03198B2A013A03198B2A073A03191C
:100568008F2A942A0800FF3405348F340534A034C8
:10057800053433340034D9340034AF340534883486
:100588000234FA340534F5340534F0340534EB34E8
:100598000534E6340534E1340534DC340534D73425
:1005A80005340F34033453345534533443345234FC
:1005B8004934423441344E345334453400342000F5
:1005C800B00020003008813120218231003A03191F
:1005D800EE2AEF2AE52A20002D08A4002C08A30003
:1005E8002F08A6002E08A50085312125823100306C
:1005F8002000A800A900AA0185313F258231853154
:10060800CD25823184310D248231013A03190D2B15
:100618000E2B062B0800200061100230FA007A0821
:10062800E0001E2B8531F02583313A2B8531EB25EF
:1006380083313A2B5208FA007A08F9000430443E14
:1006480086008701413F8A00403F0A008331FB0052
:10065800FC017C08003A0319322B1A2B7B08023A5A
:100668000319162B013A0319162B1A2B0800863189
:10067800242683312000611C422B432B502B8531CB
:10068800C2258331003A03194A2B4B2B502B0F30CC
:100698002000A0002008DF0020005F08A000A101C2
:1006A800A035A10DB730200784008230213D850098
:1006B800013F8A00003F0A0083312000A20022087F
:1006C800DF0008002000A7002308240403196D2B6D
:1006D8006E2B7F2B2735443E860087012308C03FB9
:1006E8002408C13F2508A6002708503E8600870138
:1006F800260881008C2B2735443E86008701383038
:10070800C03F0630C13F2708503E8600870181015F
:100718000800F400700871040319932B942BA52B7F
:100728007435443E860087017008C03F7108C13F98
:100738007208F3007408503E860087017308810030
:10074800B22B7435443E860087013830C03F0630EE
:10075800C13F7408503E86008701810108002000CF
:10076800C1003D08C0004008B80041088131E621B9
:10077800833120003E0884003F088500000882314C
:100788005622833101302000BE070030BF3D3E08AD
:1007980084003F0885001200031DD32BD42BBD2BEA
:1007A800080020006508B1003108B2006515650829
:1007B800B1003108B30065116508B1003108B40013
:1007C8003230AC000030AD000330AE000030AF0076
:1007D80027308231E322833108002000A400A501DC
:1007E800A50AE118F82BF92B0A2CE114A501240815
:1007F8000319FF2B002C032CDF01DF0A072C023022
:10080800A3002308DF00863118268331200025083D
:1008180008002000A401A40AE118132C142C272C8A
:100828006111FF30A3002308DA00863121268431C4
:1008380086311B26843186311E26843120006008CB
:10084800A3002308A400240808007908023E8600B3
:1008580087010108F0000030F1007908860087015F
:10086800403FF200413FF3008531302584310030AC
:10087800F500F600F701853167258431023008005C
:100888007908023E860087010108F0000030F10077
:10089800790886008701403FF200413FF300853127
:1008A800302584310030F500F600F70185316725E1
:1008B8008431023008007908F000FF39031D003048
:1008C800F1000130F2000030F30085313025843129
:1008D8000030F500F600F7018531672584310430D2
:1008E80008007908F000FF39031D0030F1000230DC
:1008F800F2000030F3008531302584310030F500F6
:10090800F600F7018531672584310230080079083F
:10091800F000FF39031D0030F1000130F200003013
:10092800F3008531302584310030F500F600F701F9
:10093800853167258431023008007908F000FF39D5
:10094800031D0030F1000230F2000030F300853161
:10095800302584310030F500F600F7018531672530
:100968008431043008007908F000FF39031D003095
:10097800F1000230F2000030F30085313025843177
:100988000030F500F600F701853167258431023023
:1009980008007908F000FF39031D0030F10001302C
:1009A800F2000030F3008531302584310030F50045
:1009B800F600F7018531672584310230080079088F
:1009C800F000FF39031D0030F1000130F200003063
:1009D800F3008531302584310030F500F600F70149
:1009E800853167258431043008007908F000FF3923
:1009F800031D0030F1000230F2000030F3008531B1
:100A0800302584310030F500F600F701853167257F
:100A18008431043008002000B3003308B100B2016B
:100A28003108AC003208AD000130AE000030AF0034
:100A380027308231E322853108002000E11D252D71
:100A4800262D2F2D2408DC002308DB002608DE00D5
:100A58002508DD00E11108002000E11D342D352DA9
:100A68003E2D7108DC007008DB007308DE00720898
:100A7800DD00E111080020002908A4002808A300CF
:100A88002A08AB002B08A500023083316623853184
:100A980008002300901A512D522D592D8F0108302E
:100AA800900091014F308D009016080085319825EF
:100AB80085318531862585318131652185318531BD
:100AC8007D25853108007608F1007508F000770863
:100AD800F8007808F200003083318D238531080052
:100AE8004D34453443342D3444344534563453342A
:100AF8000034603031008D008F0191010630930081
:100B08009201080023008F010830900091014F30B6
:100B18008D00901208002000611403145A0D8631CC
:100B280004268531053008002F00960197019801A9
:100B380099019A019B010800200061145A358631F9
:100B480004268531033008002000E5156508853145
:100B58000F25853108002000611086312D2685314A
:100B680004300800640080010131890BB72D00347E
:100B780020002408E3002308E20008002300110EE7
:100B8800890C890C01390800013082312022853115
:100B9800080000308331F12385310800A03000328D
:100BA800890BD32D08002000E110E0010E30080069
:100BB80086311126853109300800863111268531A4
:100BC8000A30080086310D26853105300800863147
:100BD80030268531003008008631332685310130D2
:100BE80008008631332685310230080086313326E5
:100BF8008531013008002000E110E0010E300800C6
:100C0800F000700823008C00080083313B238631F4
:100C180008002300911211160800230091161116DE
:100C280008002E00191408002300111408002E00D3
:100C3800191008002300901208002E000F10080059
:100C48002E000F1008002E000F14080023000C08B7
:100C5800080023009115080023001115080023003F
:0C0C68009114080005300800013008005D
:020000040001F9
:0A000E00EC3FFF3F9F3FFF3FFF3F25
:00000001FF
